:100000000C9434000C9451000C9451000C94530047
:100010000C9451000C9451000C9451000C9451001C
:100020000C9451000C9451000C9451000C9451000C
:100030000C9451000C9451000C9451000C945100FC
:100040000C9451000C9451000C9451000C945100EC
:100050000C9451000C9451000C9451000C945100DC
:100060000C9451000C94510011241FBECFEFD4E02A
:10007000DEBFCDBF11E0A0E0B1E0E8E7F4E002C0F0
:1000800005900D92A031B107D9F721E0A0E1B1E0D0
:1000900001C01D92A431B207E1F70E9425020C9421
:1000A0003A020C9400001F920F920FB60F92112487
:1000B0002F938F939F93EF93FF9390E080E01D9B8E
:1000C00014C0803DF7E09F07C4F081E090E090937A
:1000D000130180931201FF91EF919F918F912F91C6
:1000E0000F900FBE0F901F9018950196EFE9FFE05B
:1000F0003197F1F700C00000E2CF892B61F38091C6
:10010000100190911101892B79F481E090E0909396
:100110001101809310011D9BDECF8FE99FE00197B5
:10012000F1F700C00000F7CF80911001909111010C
:10013000892B89F21092110110921001CCCF9BB142
:1001400021E030E001C0220F8A95EAF7922B9BB99B
:1001500085E690E0EFE9FFE03197F1F700C000009D
:100160002091120130911301232B11F4019791F783
:1001700008959BB121E030E001C0220F8A95EAF793
:10018000209529232BB985E690E0EFE9FFE0319730
:10019000F1F700C000002091120130911301232BD0
:1001A00011F4019791F70895EF92FF920F931F9327
:1001B000CF93DF93CDB7DEB760970FB6F894DEBF6D
:1001C0000FBECDBF80E1E0E0F1E0DE0111960190CD
:1001D0000D928A95E1F78E010F5F1F4F7E0181E13D
:1001E000E80EF11C8091120190911301892BA9F462
:1001F000F801819191918F010E94B90080911201C3
:1002000090911301892B49F480911201909113016F
:10021000892B19F40E151F0529F760960FB6F8946F
:10022000DEBF0FBECDBFDF91CF911F910F91FF9029
:10023000EF900895EF92FF920F931F93CF93DF9368
:10024000CDB7DEB760970FB6F894DEBF0FBECDBF57
:1002500080E1E0E0F1E0DE01119601900D928A95D7
:10026000E1F78E010F5F1F4F7E0181E1E80EF11C67
:100270008091120190911301892BA9F4F8018191C9
:1002800091918F010E949F00809112019091130122
:10029000892B49F48091120190911301892B19F453
:1002A0000E151F0529F760960FB6F894DEBF0FBE36
:1002B000CDBFDF91CF911F910F91FF90EF900895E7
:1002C000BF92CF92DF92EF92FF920F931F93CF9343
:1002D000DF93CDB7DEB760970FB6F894DEBF0FBEE1
:1002E000CDBF1BB880E1E0E0F1E0DE0111960190A6
:1002F0000D928A95E1F77E0181E1E80EF11CCC2494
:10030000C394D12C8091120190911301892BA1F0FB
:10031000109213011092120160960FB6F894DEBF8E
:100320000FBECDBFDF91CF911F910F91FF90EF9046
:10033000DF90CF90BF9008958E010F5F1F4FF8019F
:10034000B08091810E5F1F4F8B2D0E949F00809186
:10035000120190911301892BA9F62BB1C60101C09E
:10036000880FBA94EAF7809582238BB90E151F0582
:1003700031F7C8CFAF92BF92CF92DF92FF920F9327
:100380001F93CF93DF93CDB7DEB760970FB6F89486
:10039000DEBF0FBECDBF8FEF8BB980E1E0E0F1E0B3
:1003A000DE01119601900D928A95E1F76E0181E1CF
:1003B000C80ED11CAA24A394B12C80911201909153
:1003C0001301892BA1F01092130110921201609673
:1003D0000FB6F894DEBF0FBECDBFDF91CF911F9156
:1003E0000F91FF90DF90CF90BF90AF9008958E0156
:1003F0000F5F1F4FF801F08091810E5F1F4F8F2D0F
:100400000E94B9008091120190911301892BA9F6E5
:100410008BB1950101C0220FFA94EAF7822B8BB9B8
:100420000C151D0539F7C9CF1BB8809112019091A9
:100430001301892B29F010921301109212010895D3
:100440000E941A010E94D400F0CF8FEF8AB925983C
:1004500080916B00806280936B0080916800816066
:100460008093680078940E9460010E94BA010E9403
:080470001402F9CFF894FFCF4C
:100478000000010002000300040005000600070058
:00000001FF
