:100000000C9434000C943E000C943E000C943E0082
:100010000C943E000C943E000C943E000C943E0068
:100020000C943E000C943E000C943E000C943E0058
:100030000C943E000C943E000C943E000C943E0048
:100040000C943E000C943E000C943E000C943E0038
:100050000C943E000C943E000C943E000C943E0028
:100060000C943E000C943E0011241FBECFEFD4E050
:10007000DEBFCDBF0E9440000C9490000C940000A5
:10008000559A83E05D9A2FEF31EE94E02150304095
:100090009040E1F700C000005D982FEF33EC99E04D
:1000A000215030409040E1F700C00000815051F7EE
:1000B00083E05D9A2FEF35EA9EE02150304090407A
:1000C000E1F700C000005D982FEF33EC99E021507C
:1000D00030409040E1F700C00000815051F783E0CC
:1000E0005D9A2FEF31EE94E0215030409040E1F7DF
:1000F00000C000005D982FEF33EC99E021503040B4
:100100009040E1F700C00000815051F72FEF33ED30
:1001100080E3215030408040E1F700C00000B1CFC3
:04012000F894FFCF81
:00000001FF
