:100000000C9434000C9451000C9451000C94510049
:100010000C94FD010C9451000C9451000C9451006F
:100020000C9451000C9451000C9451000C9451000C
:100030000C9451000C9451000C9451000C945100FC
:100040000C9451000C9451000C9451000C945100EC
:100050000C9451000C9451000C9451000C945100DC
:100060000C9451000C94510011241FBECFEFD4E02A
:10007000DEBFCDBF11E0A0E0B1E0ECEDF4E002C0E6
:1000800005900D92A83DB107D9F721E0A8EDB1E0A8
:1000900001C01D92A23EB207E1F70E9423020C9418
:1000A0006C020C940000349909C080910001909179
:1000B0000101C29690930101809300010895359942
:1000C0001CC080910001909101018B309105ACF032
:1000D0009C012A503109309301012093000143977C
:1000E0002091DC013091DD012817390734F081E0DF
:1000F00090E09093E1018093E00108951F93CF93E6
:10010000DF93DA01FB01E40FF51FE830F105B4F4E9
:1001100041E050E001C0440FEA95EAF74BB9FC0119
:10012000E20FF31FE081E03209F05EC04FEF45B906
:10013000CFECD7E02197F1F700C00000AD01461BDE
:10014000570B141615060CF04BC0D9011196FC0183
:1001500001900020E9F73197E81BF90BAE17BF07B4
:1001600020F5EA012197E1E0F0E001C0EE0FCA9529
:10017000EAF7EBB9280F391FE901E9812FEFE032E7
:1001800069F0E156FF0B23E0EE0FFF1F2A95E1F720
:10019000E61BF70BE15FFE4F2081209525B9EFECC0
:1001A000F7E03197F1F700C00000FC01019000205A
:1001B000E9F73197E81BF90BAE17BF0789F44150F7
:1001C000510981E090E001C0880F4A95EAF78BB9A8
:1001D0008FEF85B98FEC97E00197F1F700C0000031
:1001E000DF91CF911F910895E156FF0B43E0EE0F91
:1001F000FF1F4A95E1F7E85FFE4FE60FF71F5081BA
:10020000509555B995CFFB01E40FF51FE830F10586
:100210007CF421E030E001C0220FEA95EAF72BB927
:100220002FEF25B9AFECB7E01197F1F700C0000050
:10023000461B570B14161506FCF44150510921E0DA
:1002400030E001C0220F4A95EAF72BB9DC01EC91AE
:10025000E156FF0B83E0EE0FFF1F8A95E1F7E61BE7
:10026000F70BE15FFE4F8081809585B9EFECF7E0F9
:100270003197F1F700C0000008950F931F93CF93BB
:10028000DF93EC018B011092D9011092D80180917B
:10029000D8019091D90108972CF0DF91CF911F914F
:1002A0000F9108951092DD011092DC012091DC0184
:1002B0003091DD01809100019091010128173907EB
:1002C000B4F41092DB011092DA016091DA017091BE
:1002D000DB0168307105ACF01BB88091E0019091B2
:1002E000E101019701F51092E1011092E001809186
:1002F000D8019091D90101969093D9018093D801AA
:10030000C6CF4091D8015091D9019801CE010E94E9
:100310007E008091DA019091DB0101969093DB01E0
:100320008093DA01D2CF8091DC019091DD010196BA
:100330009093DD018093DC01B9CF0F931F93CF938E
:10034000DF93EC018B011092D9011092D8018091BA
:10035000D8019091D90108972CF0DF91CF911F918E
:100360000F9108951092DD011092DC012091DC01C3
:100370003091DD018091000190910101281739072A
:10038000B4F41092DB011092DA016091DA017091FD
:10039000DB0168307105ACF01BB88091E0019091F1
:1003A000E101019701F51092E1011092E0018091C5
:1003B000D8019091D90101969093D9018093D801E9
:1003C000C6CF4091D8015091D9019801CE010E9429
:1003D00003018091DA019091DB0101969093DB019A
:1003E0008093DA01D2CF8091DC019091DD010196FA
:1003F0009093DD018093DC01B9CF1F920F920FB66D
:100400000F9211242F933F934F935F936F937F939A
:100410008F939F93AF93BF93EF93FF930E945300EB
:100420000E945F00FF91EF91BF91AF919F918F91DB
:100430007F916F915F914F913F912F910F900FBEE0
:100440000F901F901895CF93DF938FEF84B98AB9DF
:100450003C98449A3D98459A80916C0080618093C5
:100460006C0080916C00806280936C0080916800C9
:1004700082608093680078941092DF011092DE0110
:10048000CFEFDFEF6091DE017091DF016530710524
:1004900028F090E080E0DF91CF91089582E091E034
:1004A0000E943D018091DE019091DF01049751F49B
:1004B00064E070E082E091E00E949D01D093DF0152
:1004C000C093DE018091DE019091DF01019690934F
:0C04D000DF018093DE01D6CFF894FFCF4F
:1004DC00500068656C6C6F00003F488888483F008E
:1004EC00000669919191FF000042818181817E001B
:1004FC00007E81818181FF00009191919191FF009B
:10050C00009090909090FF00004F898181817E0037
:10051C0000FF10101010FF00008181FFFF8181008F
:10052C000080FE8181819E00008146281810FF000A
:10053C00000101010101FF0000FF40202040FF00ED
:10054C0000FF08102040FF00007E818181817E0029
:10055C00007088888888FF00007E838581817E00FA
:10056C00006196989090FF00004E919191916200DD
:10057C00008080FFFF80800000FE01010101FE0071
:10058C0000F804030304F80000FF02040402FF0057
:10059C0000C32C10102CC30000C0300F0F30C00053
:0805AC0000C1A19189858300C3
:00000001FF
